{"abi":[{"type":"constructor","inputs":[{"name":"_factory","type":"address","internalType":"address"}],"stateMutability":"nonpayable"},{"type":"function","name":"addLiquidity","inputs":[{"name":"tokenA","type":"address","internalType":"address"},{"name":"tokenB","type":"address","internalType":"address"},{"name":"amountADesired","type":"uint256","internalType":"uint256"},{"name":"amountBDesired","type":"uint256","internalType":"uint256"},{"name":"to","type":"address","internalType":"address"}],"outputs":[{"name":"amountA","type":"uint256","internalType":"uint256"},{"name":"amountB","type":"uint256","internalType":"uint256"}],"stateMutability":"nonpayable"},{"type":"function","name":"factory","inputs":[],"outputs":[{"name":"","type":"address","internalType":"contract IndustrialFactory"}],"stateMutability":"view"},{"type":"function","name":"swapAndMintNFT","inputs":[{"name":"nftAddress","type":"address","internalType":"address"},{"name":"tokenIn","type":"address","internalType":"address"},{"name":"tokenOut","type":"address","internalType":"address"},{"name":"amountIn","type":"uint256","internalType":"uint256"},{"name":"minAmountOut","type":"uint256","internalType":"uint256"},{"name":"nftQuantity","type":"uint256","internalType":"uint256"}],"outputs":[{"name":"amountOut","type":"uint256","internalType":"uint256"}],"stateMutability":"nonpayable"},{"type":"function","name":"swapTokens","inputs":[{"name":"tokenIn","type":"address","internalType":"address"},{"name":"tokenOut","type":"address","internalType":"address"},{"name":"amountIn","type":"uint256","internalType":"uint256"},{"name":"minAmountOut","type":"uint256","internalType":"uint256"},{"name":"to","type":"address","internalType":"address"}],"outputs":[{"name":"amountOut","type":"uint256","internalType":"uint256"}],"stateMutability":"nonpayable"}],"bytecode":{"object":"0x60a060405234801561000f575f5ffd5b506040516116b13803806116b1833981810160405281019061003191906100c9565b8073ffffffffffffffffffffffffffffffffffffffff1660808173ffffffffffffffffffffffffffffffffffffffff1681525050506100f4565b5f5ffd5b5f73ffffffffffffffffffffffffffffffffffffffff82169050919050565b5f6100988261006f565b9050919050565b6100a88161008e565b81146100b2575f5ffd5b50565b5f815190506100c38161009f565b92915050565b5f602082840312156100de576100dd61006b565b5b5f6100eb848285016100b5565b91505092915050565b6080516115896101285f395f8181610102015281816101d1015281816103bc01528181610a660152610c7701526115895ff3fe608060405234801561000f575f5ffd5b506004361061004a575f3560e01c80634b2fc7bb1461004e57806357133adb1461007f578063c35703ea146100af578063c45a0155146100df575b5f5ffd5b61006860048036038101906100639190610ead565b6100fd565b604051610076929190610f33565b60405180910390f35b61009960048036038101906100949190610f5a565b61037a565b6040516100a69190610fe3565b60405180910390f35b6100c960048036038101906100c49190610ead565b610a62565b6040516100d69190610fe3565b60405180910390f35b6100e7610c75565b6040516100f49190611057565b60405180910390f35b5f5f5f7f000000000000000000000000000000000000000000000000000000000000000073ffffffffffffffffffffffffffffffffffffffff1663e6a4390589896040518363ffffffff1660e01b815260040161015b92919061107f565b602060405180830381865afa158015610176573d5f5f3e3d5ffd5b505050506040513d601f19601f8201168201806040525081019061019a91906110ba565b90505f73ffffffffffffffffffffffffffffffffffffffff168173ffffffffffffffffffffffffffffffffffffffff160361026d577f000000000000000000000000000000000000000000000000000000000000000073ffffffffffffffffffffffffffffffffffffffff1663c9c6539689896040518363ffffffff1660e01b815260040161022a92919061107f565b6020604051808303815f875af1158015610246573d5f5f3e3d5ffd5b505050506040513d601f19601f8201168201806040525081019061026a91906110ba565b90505b8773ffffffffffffffffffffffffffffffffffffffff166323b872dd3383896040518463ffffffff1660e01b81526004016102aa939291906110e5565b6020604051808303815f875af11580156102c6573d5f5f3e3d5ffd5b505050506040513d601f19601f820116820180604052508101906102ea919061114f565b508673ffffffffffffffffffffffffffffffffffffffff166323b872dd3383886040518463ffffffff1660e01b8152600401610328939291906110e5565b6020604051808303815f875af1158015610344573d5f5f3e3d5ffd5b505050506040513d601f19601f82011682018060405250810190610368919061114f565b50859250849150509550959350505050565b5f6103b96040518060400160405280601481526020017f526f757465723a2046696e64696e672070616972000000000000000000000000815250610c99565b5f7f000000000000000000000000000000000000000000000000000000000000000073ffffffffffffffffffffffffffffffffffffffff1663e6a4390588886040518363ffffffff1660e01b815260040161041592919061107f565b602060405180830381865afa158015610430573d5f5f3e3d5ffd5b505050506040513d601f19601f8201168201806040525081019061045491906110ba565b90505f73ffffffffffffffffffffffffffffffffffffffff168173ffffffffffffffffffffffffffffffffffffffff16036104c4576040517f08c379a00000000000000000000000000000000000000000000000000000000081526004016104bb906111d4565b60405180910390fd5b6105026040518060400160405280601281526020017f526f757465723a205061697220666f756e640000000000000000000000000000815250610c99565b6105236040518060600160405280602481526020016114e560249139610c99565b8673ffffffffffffffffffffffffffffffffffffffff166323b872dd3383886040518463ffffffff1660e01b8152600401610560939291906110e5565b6020604051808303815f875af115801561057c573d5f5f3e3d5ffd5b505050506040513d601f19601f820116820180604052508101906105a0919061114f565b6105df576040517f08c379a00000000000000000000000000000000000000000000000000000000081526004016105d69061123c565b60405180910390fd5b61061d6040518060400160405280601b81526020017f526f757465723a20746f6b656e496e207472616e736665727265640000000000815250610c99565b61065b6040518060400160405280601681526020017f526f757465723a20457865637574696e67207377617000000000000000000000815250610c99565b8073ffffffffffffffffffffffffffffffffffffffff1663432643498689876040518463ffffffff1660e01b81526004016106989392919061125a565b6020604051808303815f875af11580156106b4573d5f5f3e3d5ffd5b505050506040513d601f19601f820116820180604052508101906106d891906112a3565b91506106fc6040518060600160405280602181526020016115336021913983610d32565b61071d6040518060600160405280602b81526020016114ba602b9139610c99565b8573ffffffffffffffffffffffffffffffffffffffff1663095ea7b389846040518363ffffffff1660e01b81526004016107589291906112ce565b6020604051808303815f875af1158015610774573d5f5f3e3d5ffd5b505050506040513d601f19601f82011682018060405250810190610798919061114f565b6107d7576040517f08c379a00000000000000000000000000000000000000000000000000000000081526004016107ce9061133f565b60405180910390fd5b6108156040518060400160405280601981526020017f526f757465723a20746f6b656e4f757420617070726f76656400000000000000815250610c99565b6108536040518060400160405280601381526020017f526f757465723a204d696e74696e67204e465400000000000000000000000000815250610c99565b8773ffffffffffffffffffffffffffffffffffffffff1663a0712d68846040518263ffffffff1660e01b815260040161088c9190610fe3565b5f604051808303815f87803b1580156108a3575f5ffd5b505af11580156108b5573d5f5f3e3d5ffd5b505050506108f76040518060400160405280601281526020017f526f757465723a204e4654206d696e7465640000000000000000000000000000815250610c99565b5f8673ffffffffffffffffffffffffffffffffffffffff166370a08231306040518263ffffffff1660e01b8152600401610931919061135d565b602060405180830381865afa15801561094c573d5f5f3e3d5ffd5b505050506040513d601f19601f8201168201806040525081019061097091906112a3565b90505f811115610a56578673ffffffffffffffffffffffffffffffffffffffff1663a9059cbb33836040518363ffffffff1660e01b81526004016109b59291906112ce565b6020604051808303815f875af11580156109d1573d5f5f3e3d5ffd5b505050506040513d601f19601f820116820180604052508101906109f5919061114f565b610a34576040517f08c379a0000000000000000000000000000000000000000000000000000000008152600401610a2b906113c0565b60405180910390fd5b610a556040518060600160405280602a8152602001611509602a9139610c99565b5b50509695505050505050565b5f5f7f000000000000000000000000000000000000000000000000000000000000000073ffffffffffffffffffffffffffffffffffffffff1663e6a4390588886040518363ffffffff1660e01b8152600401610abf92919061107f565b602060405180830381865afa158015610ada573d5f5f3e3d5ffd5b505050506040513d601f19601f82011682018060405250810190610afe91906110ba565b90505f73ffffffffffffffffffffffffffffffffffffffff168173ffffffffffffffffffffffffffffffffffffffff1603610b6e576040517f08c379a0000000000000000000000000000000000000000000000000000000008152600401610b65906111d4565b60405180910390fd5b8673ffffffffffffffffffffffffffffffffffffffff166323b872dd3383886040518463ffffffff1660e01b8152600401610bab939291906110e5565b6020604051808303815f875af1158015610bc7573d5f5f3e3d5ffd5b505050506040513d601f19601f82011682018060405250810190610beb919061114f565b508073ffffffffffffffffffffffffffffffffffffffff1663432643498689876040518463ffffffff1660e01b8152600401610c299392919061125a565b6020604051808303815f875af1158015610c45573d5f5f3e3d5ffd5b505050506040513d601f19601f82011682018060405250810190610c6991906112a3565b91505095945050505050565b7f000000000000000000000000000000000000000000000000000000000000000081565b610d2f81604051602401610cad919061143e565b6040516020818303038152906040527f41304fac000000000000000000000000000000000000000000000000000000007bffffffffffffffffffffffffffffffffffffffffffffffffffffffff19166020820180517bffffffffffffffffffffffffffffffffffffffffffffffffffffffff8381831617835250505050610dce565b50565b610dca8282604051602401610d4892919061145e565b6040516020818303038152906040527fb60e72cc000000000000000000000000000000000000000000000000000000007bffffffffffffffffffffffffffffffffffffffffffffffffffffffff19166020820180517bffffffffffffffffffffffffffffffffffffffffffffffffffffffff8381831617835250505050610dce565b5050565b610de581610ddd610de8610e07565b63ffffffff16565b50565b5f6a636f6e736f6c652e6c6f6790505f5f835160208501845afa505050565b610e12819050919050565b610e1a61148c565b565b5f5ffd5b5f73ffffffffffffffffffffffffffffffffffffffff82169050919050565b5f610e4982610e20565b9050919050565b610e5981610e3f565b8114610e63575f5ffd5b50565b5f81359050610e7481610e50565b92915050565b5f819050919050565b610e8c81610e7a565b8114610e96575f5ffd5b50565b5f81359050610ea781610e83565b92915050565b5f5f5f5f5f60a08688031215610ec657610ec5610e1c565b5b5f610ed388828901610e66565b9550506020610ee488828901610e66565b9450506040610ef588828901610e99565b9350506060610f0688828901610e99565b9250506080610f1788828901610e66565b9150509295509295909350565b610f2d81610e7a565b82525050565b5f604082019050610f465f830185610f24565b610f536020830184610f24565b9392505050565b5f5f5f5f5f5f60c08789031215610f7457610f73610e1c565b5b5f610f8189828a01610e66565b9650506020610f9289828a01610e66565b9550506040610fa389828a01610e66565b9450506060610fb489828a01610e99565b9350506080610fc589828a01610e99565b92505060a0610fd689828a01610e99565b9150509295509295509295565b5f602082019050610ff65f830184610f24565b92915050565b5f819050919050565b5f61101f61101a61101584610e20565b610ffc565b610e20565b9050919050565b5f61103082611005565b9050919050565b5f61104182611026565b9050919050565b61105181611037565b82525050565b5f60208201905061106a5f830184611048565b92915050565b61107981610e3f565b82525050565b5f6040820190506110925f830185611070565b61109f6020830184611070565b9392505050565b5f815190506110b481610e50565b92915050565b5f602082840312156110cf576110ce610e1c565b5b5f6110dc848285016110a6565b91505092915050565b5f6060820190506110f85f830186611070565b6111056020830185611070565b6111126040830184610f24565b949350505050565b5f8115159050919050565b61112e8161111a565b8114611138575f5ffd5b50565b5f8151905061114981611125565b92915050565b5f6020828403121561116457611163610e1c565b5b5f6111718482850161113b565b91505092915050565b5f82825260208201905092915050565b7f504149525f4e4f545f464f554e440000000000000000000000000000000000005f82015250565b5f6111be600e8361117a565b91506111c98261118a565b602082019050919050565b5f6020820190508181035f8301526111eb816111b2565b9050919050565b7f524f555445525f544f4b454e494e5f5452414e534645525f4641494c454400005f82015250565b5f611226601e8361117a565b9150611231826111f2565b602082019050919050565b5f6020820190508181035f8301526112538161121a565b9050919050565b5f60608201905061126d5f830186610f24565b61127a6020830185611070565b6112876040830184610f24565b949350505050565b5f8151905061129d81610e83565b92915050565b5f602082840312156112b8576112b7610e1c565b5b5f6112c58482850161128f565b91505092915050565b5f6040820190506112e15f830185611070565b6112ee6020830184610f24565b9392505050565b7f524f555445525f544f4b454e4f55545f415050524f56455f4641494c454400005f82015250565b5f611329601e8361117a565b9150611334826112f5565b602082019050919050565b5f6020820190508181035f8301526113568161131d565b9050919050565b5f6020820190506113705f830184611070565b92915050565b7f524f555445525f544f4b454e4f55545f5452414e534645525f4641494c4544005f82015250565b5f6113aa601f8361117a565b91506113b582611376565b602082019050919050565b5f6020820190508181035f8301526113d78161139e565b9050919050565b5f81519050919050565b8281835e5f83830152505050565b5f601f19601f8301169050919050565b5f611410826113de565b61141a818561117a565b935061142a8185602086016113e8565b611433816113f6565b840191505092915050565b5f6020820190508181035f8301526114568184611406565b905092915050565b5f6040820190508181035f8301526114768185611406565b90506114856020830184610f24565b9392505050565b7f4e487b71000000000000000000000000000000000000000000000000000000005f52605160045260245ffdfe526f757465723a20417070726f76696e6720746f6b656e4f757420666f72204e465420636f6e7472616374526f757465723a205472616e7366657272696e6720746f6b656e496e20746f2070616972526f757465723a2052657475726e6564206c6566746f76657220746f6b656e4f757420746f2075736572526f757465723a20537761702065786563757465642c20616d6f756e744f75743aa26469706673582212209c597168d8997272d1f69f279d218e7f83cefbe12137eb73b3102e0fed04bf8164736f6c63430008210033","linkReferences":{}},"methodIdentifiers":{"addLiquidity(address,address,uint256,uint256,address)":"4b2fc7bb","factory()":"c45a0155","swapAndMintNFT(address,address,address,uint256,uint256,uint256)":"57133adb","swapTokens(address,address,uint256,uint256,address)":"c35703ea"},"id":43}